{
  "_format": "hh-sol-artifact-1",
  "contractName": "DestinationMinter",
  "sourceName": "contracts/DestinationMinter.sol",
  "abi": [
    {
      "inputs": [
        {
          "internalType": "address",
          "name": "router",
          "type": "address"
        },
        {
          "internalType": "address",
          "name": "nftAddress",
          "type": "address"
        },
        {
          "internalType": "address",
          "name": "escrow",
          "type": "address"
        }
      ],
      "stateMutability": "nonpayable",
      "type": "constructor"
    },
    {
      "inputs": [
        {
          "internalType": "address",
          "name": "router",
          "type": "address"
        }
      ],
      "name": "InvalidRouter",
      "type": "error"
    },
    {
      "anonymous": false,
      "inputs": [],
      "name": "MintCallSuccessfull",
      "type": "event"
    },
    {
      "anonymous": false,
      "inputs": [
        {
          "indexed": false,
          "internalType": "address",
          "name": "sender",
          "type": "address"
        },
        {
          "indexed": false,
          "internalType": "uint256",
          "name": "tokenId",
          "type": "uint256"
        },
        {
          "indexed": false,
          "internalType": "string",
          "name": "tokenUri",
          "type": "string"
        },
        {
          "indexed": false,
          "internalType": "address",
          "name": "token",
          "type": "address"
        },
        {
          "indexed": false,
          "internalType": "uint256",
          "name": "price",
          "type": "uint256"
        },
        {
          "indexed": false,
          "internalType": "uint256",
          "name": "profit",
          "type": "uint256"
        },
        {
          "indexed": false,
          "internalType": "bool",
          "name": "check",
          "type": "bool"
        }
      ],
      "name": "MintTransferSuccessfull",
      "type": "event"
    },
    {
      "inputs": [
        {
          "components": [
            {
              "internalType": "bytes32",
              "name": "messageId",
              "type": "bytes32"
            },
            {
              "internalType": "uint64",
              "name": "sourceChainSelector",
              "type": "uint64"
            },
            {
              "internalType": "bytes",
              "name": "sender",
              "type": "bytes"
            },
            {
              "internalType": "bytes",
              "name": "data",
              "type": "bytes"
            },
            {
              "components": [
                {
                  "internalType": "address",
                  "name": "token",
                  "type": "address"
                },
                {
                  "internalType": "uint256",
                  "name": "amount",
                  "type": "uint256"
                }
              ],
              "internalType": "struct Client.EVMTokenAmount[]",
              "name": "destTokenAmounts",
              "type": "tuple[]"
            }
          ],
          "internalType": "struct Client.Any2EVMMessage",
          "name": "message",
          "type": "tuple"
        }
      ],
      "name": "ccipReceive",
      "outputs": [],
      "stateMutability": "nonpayable",
      "type": "function"
    },
    {
      "inputs": [
        {
          "internalType": "bytes",
          "name": "approvePayload",
          "type": "bytes"
        }
      ],
      "name": "decode",
      "outputs": [
        {
          "internalType": "address",
          "name": "",
          "type": "address"
        },
        {
          "internalType": "uint256",
          "name": "",
          "type": "uint256"
        },
        {
          "internalType": "string",
          "name": "",
          "type": "string"
        },
        {
          "internalType": "address",
          "name": "",
          "type": "address"
        },
        {
          "internalType": "uint256",
          "name": "",
          "type": "uint256"
        },
        {
          "internalType": "uint256",
          "name": "",
          "type": "uint256"
        },
        {
          "internalType": "bool",
          "name": "",
          "type": "bool"
        }
      ],
      "stateMutability": "pure",
      "type": "function"
    },
    {
      "inputs": [],
      "name": "getRouter",
      "outputs": [
        {
          "internalType": "address",
          "name": "",
          "type": "address"
        }
      ],
      "stateMutability": "view",
      "type": "function"
    },
    {
      "inputs": [
        {
          "internalType": "bytes4",
          "name": "interfaceId",
          "type": "bytes4"
        }
      ],
      "name": "supportsInterface",
      "outputs": [
        {
          "internalType": "bool",
          "name": "",
          "type": "bool"
        }
      ],
      "stateMutability": "pure",
      "type": "function"
    }
  ],
  "bytecode": "0x60a060405234801561001057600080fd5b50604051610b55380380610b5583398101604081905261002f916100b3565b826001600160a01b03811661005e576040516335fdcccd60e21b81526000600482015260240160405180910390fd5b6001600160a01b03908116608052600080549382166001600160a01b0319948516179055600180549290911691909216179055506100f6565b80516001600160a01b03811681146100ae57600080fd5b919050565b6000806000606084860312156100c857600080fd5b6100d184610097565b92506100df60208501610097565b91506100ed60408501610097565b90509250925092565b608051610a3e61011760003960008181609b015261012d0152610a3e6000f3fe608060405234801561001057600080fd5b506004361061004c5760003560e01c806301ffc9a71461005157806385572ffb14610079578063b0f479a11461008e578063e5c5e9a3146100c5575b600080fd5b61006461005f3660046104ae565b6100eb565b60405190151581526020015b60405180910390f35b61008c6100873660046104df565b610122565b005b6040516001600160a01b037f0000000000000000000000000000000000000000000000000000000000000000168152602001610070565b6100d86100d336600461062b565b610186565b6040516100709796959493929190610698565b60006001600160e01b031982166385572ffb60e01b148061011c57506001600160e01b031982166301ffc9a760e01b145b92915050565b336001600160a01b037f00000000000000000000000000000000000000000000000000000000000000001614610172576040516335fdcccd60e21b81523360048201526024015b60405180910390fd5b61018361017e826107e1565b6102ce565b50565b60008060606000806000806004885110156101da5760405162461bcd60e51b815260206004820152601460248201527314185e5b1bd859081a5cc81d1bdbc81cda1bdc9d60621b6044820152606401610169565b6000600489516101ea91906108a4565b67ffffffffffffffff8111156102025761020261051a565b6040519080825280601f01601f19166020018201604052801561022c576020820181803683370190505b50905060045b89518110156102a15789818151811061024d5761024d6108bb565b01602001516001600160f81b031916826102686004846108a4565b81518110610278576102786108bb565b60200101906001600160f81b031916908160001a90535080610299816108d1565b915050610232565b50808060200190518101906102b69190610907565b959f949e50929c50909a509850965090945092505050565b60008060008060008060006102e68860600151610186565b96509650965096509650965096506000600160009054906101000a90046001600160a01b031690506000816001600160a01b03166369e5778f60008054906101000a90046001600160a01b03168a8c6040518463ffffffff1660e01b8152600401610371939291906001600160a01b0393841681526020810192909252909116604082015260600190565b6020604051808303816000875af1158015610390573d6000803e3d6000fd5b505050506040513d601f19601f820116820180604052508101906103b491906109d1565b9050806103ff577fdf7c6eead3f5f13d5f4f10a291b9d2ab28092c93e2c45f296adaf40441c2fa4d898989898989896040516103f69796959493929190610698565b60405180910390a15b80156104a2576000805460608c01516040516001600160a01b039092169161042791906109ec565b6000604051808303816000865af19150503d8060008114610464576040519150601f19603f3d011682016040523d82523d6000602084013e610469565b606091505b505090508061047757600080fd5b6040517fa8bcb6a278444293ea5c0bce4a4734a060a5f557bb999d8a57c4f69e96f1fe8890600090a1505b50505050505050505050565b6000602082840312156104c057600080fd5b81356001600160e01b0319811681146104d857600080fd5b9392505050565b6000602082840312156104f157600080fd5b813567ffffffffffffffff81111561050857600080fd5b820160a081850312156104d857600080fd5b634e487b7160e01b600052604160045260246000fd5b6040805190810167ffffffffffffffff811182821017156105535761055361051a565b60405290565b60405160a0810167ffffffffffffffff811182821017156105535761055361051a565b604051601f8201601f1916810167ffffffffffffffff811182821017156105a5576105a561051a565b604052919050565b600067ffffffffffffffff8211156105c7576105c761051a565b50601f01601f191660200190565b600082601f8301126105e657600080fd5b81356105f96105f4826105ad565b61057c565b81815284602083860101111561060e57600080fd5b816020850160208301376000918101602001919091529392505050565b60006020828403121561063d57600080fd5b813567ffffffffffffffff81111561065457600080fd5b610660848285016105d5565b949350505050565b60005b8381101561068357818101518382015260200161066b565b83811115610692576000848401525b50505050565b600060018060a01b03808a16835288602084015260e0604084015287518060e08501526101006106ce8282870160208d01610668565b97909116606084015260808301959095525060a0810192909252151560c0820152601f91909101601f191601019392505050565b803567ffffffffffffffff8116811461071a57600080fd5b919050565b6001600160a01b038116811461018357600080fd5b600082601f83011261074557600080fd5b8135602067ffffffffffffffff8211156107615761076161051a565b61076f818360051b0161057c565b82815260069290921b8401810191818101908684111561078e57600080fd5b8286015b848110156107d657604081890312156107ab5760008081fd5b6107b3610530565b81356107be8161071f565b81528185013585820152835291830191604001610792565b509695505050505050565b600060a082360312156107f357600080fd5b6107fb610559565b8235815261080b60208401610702565b6020820152604083013567ffffffffffffffff8082111561082b57600080fd5b610837368387016105d5565b6040840152606085013591508082111561085057600080fd5b61085c368387016105d5565b6060840152608085013591508082111561087557600080fd5b5061088236828601610734565b60808301525092915050565b634e487b7160e01b600052601160045260246000fd5b6000828210156108b6576108b661088e565b500390565b634e487b7160e01b600052603260045260246000fd5b60006000198214156108e5576108e561088e565b5060010190565b805161071a8161071f565b8051801515811461071a57600080fd5b600080600080600080600060e0888a03121561092257600080fd5b875161092d8161071f565b602089015160408a0151919850965067ffffffffffffffff81111561095157600080fd5b8801601f81018a1361096257600080fd5b80516109706105f4826105ad565b8181528b602083850101111561098557600080fd5b610996826020830160208601610668565b96506109a7915050606089016108ec565b93506080880151925060a088015191506109c360c089016108f7565b905092959891949750929550565b6000602082840312156109e357600080fd5b6104d8826108f7565b600082516109fe818460208701610668565b919091019291505056fea26469706673582212201480c1ffdd54502d3918349557580aad2b1c6785e79cdca49a529c1cf0e7fae264736f6c634300080c0033",
  "linkReferences": {},
  "deployedLinkReferences": {}
}