{
  "_format": "hh-sol-artifact-1",
  "contractName": "SourceMinter",
  "sourceName": "contracts/SourceMinter.sol",
  "abi": [
    {
      "inputs": [
        {
          "internalType": "address",
          "name": "router",
          "type": "address"
        },
        {
          "internalType": "address",
          "name": "link",
          "type": "address"
        }
      ],
      "stateMutability": "nonpayable",
      "type": "constructor"
    },
    {
      "anonymous": false,
      "inputs": [
        {
          "indexed": false,
          "internalType": "bytes32",
          "name": "messageId",
          "type": "bytes32"
        }
      ],
      "name": "MessageSent",
      "type": "event"
    },
    {
      "inputs": [
        {
          "internalType": "uint64",
          "name": "destinationChainSelector",
          "type": "uint64"
        },
        {
          "internalType": "address",
          "name": "receiver",
          "type": "address"
        },
        {
          "internalType": "uint256",
          "name": "tokenId",
          "type": "uint256"
        },
        {
          "internalType": "string",
          "name": "TOKEN_URI",
          "type": "string"
        },
        {
          "internalType": "address",
          "name": "token",
          "type": "address"
        },
        {
          "internalType": "uint256",
          "name": "price",
          "type": "uint256"
        },
        {
          "internalType": "uint256",
          "name": "profit",
          "type": "uint256"
        },
        {
          "internalType": "bool",
          "name": "check",
          "type": "bool"
        },
        {
          "internalType": "uint256",
          "name": "gas",
          "type": "uint256"
        }
      ],
      "name": "transfer",
      "outputs": [],
      "stateMutability": "nonpayable",
      "type": "function"
    },
    {
      "stateMutability": "payable",
      "type": "receive"
    }
  ],
  "bytecode": "0x60c0604052600180546001600160a01b031916736f3b51bd5b67f3e5bca2fb32796215a796b7965117905534801561003657600080fd5b506040516106a03803806106a083398101604081905261005591610088565b6001600160a01b039182166080521660a0526100bb565b80516001600160a01b038116811461008357600080fd5b919050565b6000806040838503121561009b57600080fd5b6100a48361006c565b91506100b26020840161006c565b90509250929050565b60805160a0516105c06100e06000396000610121015260006101d201526105c06000f3fe6080604052600436106100225760003560e01c80637d90e69d1461002e57600080fd5b3661002957005b600080fd5b34801561003a57600080fd5b5061004e6100493660046102d6565b610050565b005b6040805160a081019091526001600160a01b03891660c08201526000908060e081016040516020818303038152906040528152602001338a8a8a8a8a8a6040516024016100a39796959493929190610448565b60408051601f19818403018152919052602080820180516001600160e01b0316630524a7db60e41b17905290825201600060405190808252806020026020018201604052801561011957816020015b60408051808201909152600080825260208201528152602001906001900390816100f25790505b5081526020017f00000000000000000000000000000000000000000000000000000000000000006001600160a01b031681526020016101b36040518060400160405280868152602001600015158152506040805182516024820152602092830151151560448083019190915282518083039091018152606490910190915290810180516001600160e01b03166397a657c960e01b17905290565b90526040516396f4e9f960e01b81529091506000906001600160a01b037f000000000000000000000000000000000000000000000000000000000000000016906396f4e9f990610209908e908690600401610497565b6020604051808303816000875af1158015610228573d6000803e3d6000fd5b505050506040513d601f19601f8201168201806040525081019061024c9190610571565b90507f54791b38f3859327992a1ca0590ad3c0f08feba98d1a4f56ab0dca74d203392a8160405161027f91815260200190565b60405180910390a15050505050505050505050565b80356001600160a01b03811681146102ab57600080fd5b919050565b634e487b7160e01b600052604160045260246000fd5b803580151581146102ab57600080fd5b60008060008060008060008060006101208a8c0312156102f557600080fd5b893567ffffffffffffffff808216821461030e57600080fd5b819a5061031d60208d01610294565b995060408c0135985060608c013591508082111561033a57600080fd5b818c0191508c601f83011261034e57600080fd5b813581811115610360576103606102b0565b604051601f8201601f19908116603f01168101908382118183101715610388576103886102b0565b816040528281528f60208487010111156103a157600080fd5b82602086016020830137600060208483010152809a5050505050506103c860808b01610294565b945060a08a0135935060c08a013592506103e460e08b016102c6565b91506101008a013590509295985092959850929598565b6000815180845260005b8181101561042157602081850181015186830182015201610405565b81811115610433576000602083870101525b50601f01601f19169290920160200192915050565b600060018060a01b03808a16835288602084015260e0604084015261047060e08401896103fb565b9616606083015250608081019390935260a0830191909152151560c0909101529392505050565b6000604067ffffffffffffffff8516835260208181850152845160a0838601526104c460e08601826103fb565b905081860151603f19808784030160608801526104e183836103fb565b88860151888203830160808a01528051808352908601945060009350908501905b8084101561053457845180516001600160a01b0316835286015186830152938501936001939093019290860190610502565b5060608901516001600160a01b031660a08901526080890151888203830160c08a0152955061056381876103fb565b9a9950505050505050505050565b60006020828403121561058357600080fd5b505191905056fea264697066735822122071ae565e51ede0a71848acb9b9754aeec20885414f6168d8181b90b9e53343a964736f6c634300080c0033",
  "linkReferences": {},
  "deployedLinkReferences": {}
}