{
  "_format": "hh-sol-artifact-1",
  "contractName": "GalNFT",
  "sourceName": "contracts/GalNFT.sol",
  "abi": [
    {
      "inputs": [
        {
          "internalType": "string",
          "name": "_name",
          "type": "string"
        },
        {
          "internalType": "string",
          "name": "_symbol",
          "type": "string"
        },
        {
          "internalType": "uint256",
          "name": "fee",
          "type": "uint256"
        },
        {
          "internalType": "address",
          "name": "admin",
          "type": "address"
        },
        {
          "internalType": "address",
          "name": "factory",
          "type": "address"
        },
        {
          "internalType": "string",
          "name": "initial",
          "type": "string"
        }
      ],
      "stateMutability": "nonpayable",
      "type": "constructor"
    },
    {
      "anonymous": false,
      "inputs": [
        {
          "indexed": true,
          "internalType": "address",
          "name": "owner",
          "type": "address"
        },
        {
          "indexed": true,
          "internalType": "address",
          "name": "approved",
          "type": "address"
        },
        {
          "indexed": true,
          "internalType": "uint256",
          "name": "tokenId",
          "type": "uint256"
        }
      ],
      "name": "Approval",
      "type": "event"
    },
    {
      "anonymous": false,
      "inputs": [
        {
          "indexed": true,
          "internalType": "address",
          "name": "owner",
          "type": "address"
        },
        {
          "indexed": true,
          "internalType": "address",
          "name": "operator",
          "type": "address"
        },
        {
          "indexed": false,
          "internalType": "bool",
          "name": "approved",
          "type": "bool"
        }
      ],
      "name": "ApprovalForAll",
      "type": "event"
    },
    {
      "anonymous": false,
      "inputs": [
        {
          "indexed": true,
          "internalType": "bytes32",
          "name": "role",
          "type": "bytes32"
        },
        {
          "indexed": true,
          "internalType": "bytes32",
          "name": "previousAdminRole",
          "type": "bytes32"
        },
        {
          "indexed": true,
          "internalType": "bytes32",
          "name": "newAdminRole",
          "type": "bytes32"
        }
      ],
      "name": "RoleAdminChanged",
      "type": "event"
    },
    {
      "anonymous": false,
      "inputs": [
        {
          "indexed": true,
          "internalType": "bytes32",
          "name": "role",
          "type": "bytes32"
        },
        {
          "indexed": true,
          "internalType": "address",
          "name": "account",
          "type": "address"
        },
        {
          "indexed": true,
          "internalType": "address",
          "name": "sender",
          "type": "address"
        }
      ],
      "name": "RoleGranted",
      "type": "event"
    },
    {
      "anonymous": false,
      "inputs": [
        {
          "indexed": true,
          "internalType": "bytes32",
          "name": "role",
          "type": "bytes32"
        },
        {
          "indexed": true,
          "internalType": "address",
          "name": "account",
          "type": "address"
        },
        {
          "indexed": true,
          "internalType": "address",
          "name": "sender",
          "type": "address"
        }
      ],
      "name": "RoleRevoked",
      "type": "event"
    },
    {
      "anonymous": false,
      "inputs": [
        {
          "indexed": true,
          "internalType": "address",
          "name": "from",
          "type": "address"
        },
        {
          "indexed": true,
          "internalType": "address",
          "name": "to",
          "type": "address"
        },
        {
          "indexed": true,
          "internalType": "uint256",
          "name": "tokenId",
          "type": "uint256"
        }
      ],
      "name": "Transfer",
      "type": "event"
    },
    {
      "inputs": [],
      "name": "ADMIN_ROLE",
      "outputs": [
        {
          "internalType": "bytes32",
          "name": "",
          "type": "bytes32"
        }
      ],
      "stateMutability": "view",
      "type": "function"
    },
    {
      "inputs": [],
      "name": "DEFAULT_ADMIN_ROLE",
      "outputs": [
        {
          "internalType": "bytes32",
          "name": "",
          "type": "bytes32"
        }
      ],
      "stateMutability": "view",
      "type": "function"
    },
    {
      "inputs": [
        {
          "internalType": "address",
          "name": "to",
          "type": "address"
        },
        {
          "internalType": "uint256",
          "name": "tokenId",
          "type": "uint256"
        }
      ],
      "name": "approve",
      "outputs": [],
      "stateMutability": "nonpayable",
      "type": "function"
    },
    {
      "inputs": [
        {
          "internalType": "address",
          "name": "owner",
          "type": "address"
        }
      ],
      "name": "balanceOf",
      "outputs": [
        {
          "internalType": "uint256",
          "name": "",
          "type": "uint256"
        }
      ],
      "stateMutability": "view",
      "type": "function"
    },
    {
      "inputs": [
        {
          "internalType": "uint256",
          "name": "burnTokenId",
          "type": "uint256"
        }
      ],
      "name": "burn",
      "outputs": [],
      "stateMutability": "nonpayable",
      "type": "function"
    },
    {
      "inputs": [],
      "name": "factoryAddress",
      "outputs": [
        {
          "internalType": "address",
          "name": "",
          "type": "address"
        }
      ],
      "stateMutability": "view",
      "type": "function"
    },
    {
      "inputs": [
        {
          "internalType": "uint256",
          "name": "tokenId",
          "type": "uint256"
        }
      ],
      "name": "getApproved",
      "outputs": [
        {
          "internalType": "address",
          "name": "",
          "type": "address"
        }
      ],
      "stateMutability": "view",
      "type": "function"
    },
    {
      "inputs": [
        {
          "internalType": "bytes32",
          "name": "role",
          "type": "bytes32"
        }
      ],
      "name": "getRoleAdmin",
      "outputs": [
        {
          "internalType": "bytes32",
          "name": "",
          "type": "bytes32"
        }
      ],
      "stateMutability": "view",
      "type": "function"
    },
    {
      "inputs": [
        {
          "internalType": "bytes32",
          "name": "role",
          "type": "bytes32"
        },
        {
          "internalType": "address",
          "name": "account",
          "type": "address"
        }
      ],
      "name": "grantRole",
      "outputs": [],
      "stateMutability": "nonpayable",
      "type": "function"
    },
    {
      "inputs": [
        {
          "internalType": "bytes32",
          "name": "role",
          "type": "bytes32"
        },
        {
          "internalType": "address",
          "name": "account",
          "type": "address"
        }
      ],
      "name": "hasRole",
      "outputs": [
        {
          "internalType": "bool",
          "name": "",
          "type": "bool"
        }
      ],
      "stateMutability": "view",
      "type": "function"
    },
    {
      "inputs": [
        {
          "internalType": "address",
          "name": "owner",
          "type": "address"
        },
        {
          "internalType": "address",
          "name": "operator",
          "type": "address"
        }
      ],
      "name": "isApprovedForAll",
      "outputs": [
        {
          "internalType": "bool",
          "name": "",
          "type": "bool"
        }
      ],
      "stateMutability": "view",
      "type": "function"
    },
    {
      "inputs": [
        {
          "internalType": "address",
          "name": "to",
          "type": "address"
        },
        {
          "internalType": "uint256",
          "name": "tokenId",
          "type": "uint256"
        },
        {
          "internalType": "string",
          "name": "TOKEN_URI",
          "type": "string"
        },
        {
          "internalType": "address",
          "name": "token",
          "type": "address"
        },
        {
          "internalType": "uint256",
          "name": "price",
          "type": "uint256"
        },
        {
          "internalType": "uint256",
          "name": "profit",
          "type": "uint256"
        },
        {
          "internalType": "bool",
          "name": "check",
          "type": "bool"
        }
      ],
      "name": "mint",
      "outputs": [],
      "stateMutability": "nonpayable",
      "type": "function"
    },
    {
      "inputs": [],
      "name": "name",
      "outputs": [
        {
          "internalType": "string",
          "name": "",
          "type": "string"
        }
      ],
      "stateMutability": "view",
      "type": "function"
    },
    {
      "inputs": [
        {
          "internalType": "uint256",
          "name": "tokenId",
          "type": "uint256"
        }
      ],
      "name": "ownerOf",
      "outputs": [
        {
          "internalType": "address",
          "name": "",
          "type": "address"
        }
      ],
      "stateMutability": "view",
      "type": "function"
    },
    {
      "inputs": [
        {
          "internalType": "bytes32",
          "name": "role",
          "type": "bytes32"
        },
        {
          "internalType": "address",
          "name": "account",
          "type": "address"
        }
      ],
      "name": "renounceRole",
      "outputs": [],
      "stateMutability": "nonpayable",
      "type": "function"
    },
    {
      "inputs": [
        {
          "internalType": "bytes32",
          "name": "role",
          "type": "bytes32"
        },
        {
          "internalType": "address",
          "name": "account",
          "type": "address"
        }
      ],
      "name": "revokeRole",
      "outputs": [],
      "stateMutability": "nonpayable",
      "type": "function"
    },
    {
      "inputs": [
        {
          "internalType": "address",
          "name": "from",
          "type": "address"
        },
        {
          "internalType": "address",
          "name": "to",
          "type": "address"
        },
        {
          "internalType": "uint256",
          "name": "tokenId",
          "type": "uint256"
        }
      ],
      "name": "safeTransferFrom",
      "outputs": [],
      "stateMutability": "nonpayable",
      "type": "function"
    },
    {
      "inputs": [
        {
          "internalType": "address",
          "name": "from",
          "type": "address"
        },
        {
          "internalType": "address",
          "name": "to",
          "type": "address"
        },
        {
          "internalType": "uint256",
          "name": "tokenId",
          "type": "uint256"
        },
        {
          "internalType": "bytes",
          "name": "_data",
          "type": "bytes"
        }
      ],
      "name": "safeTransferFrom",
      "outputs": [],
      "stateMutability": "nonpayable",
      "type": "function"
    },
    {
      "inputs": [
        {
          "internalType": "address",
          "name": "operator",
          "type": "address"
        },
        {
          "internalType": "bool",
          "name": "approved",
          "type": "bool"
        }
      ],
      "name": "setApprovalForAll",
      "outputs": [],
      "stateMutability": "nonpayable",
      "type": "function"
    },
    {
      "inputs": [
        {
          "internalType": "bytes4",
          "name": "_interfaceId",
          "type": "bytes4"
        }
      ],
      "name": "supportsInterface",
      "outputs": [
        {
          "internalType": "bool",
          "name": "",
          "type": "bool"
        }
      ],
      "stateMutability": "view",
      "type": "function"
    },
    {
      "inputs": [],
      "name": "symbol",
      "outputs": [
        {
          "internalType": "string",
          "name": "",
          "type": "string"
        }
      ],
      "stateMutability": "view",
      "type": "function"
    },
    {
      "inputs": [
        {
          "internalType": "uint256",
          "name": "tokenId",
          "type": "uint256"
        }
      ],
      "name": "tokenURI",
      "outputs": [
        {
          "internalType": "string",
          "name": "",
          "type": "string"
        }
      ],
      "stateMutability": "view",
      "type": "function"
    },
    {
      "inputs": [
        {
          "internalType": "address",
          "name": "from",
          "type": "address"
        },
        {
          "internalType": "address",
          "name": "to",
          "type": "address"
        },
        {
          "internalType": "uint256",
          "name": "tokenId",
          "type": "uint256"
        }
      ],
      "name": "transferFrom",
      "outputs": [],
      "stateMutability": "nonpayable",
      "type": "function"
    }
  ],
  "bytecode": "0x60c0604052600360808190526211d05360ea1b60a0908152620000269160099190620001e5565b50600d80546001600160a01b03191673a94cf709d7fd3b6e5507ae25a6229f353a6901b31790556014600f553480156200005f57600080fd5b506040516200261238038062002612833981016040819052620000829162000375565b8551869086906200009b906000906020850190620001e5565b508051620000b1906001906020840190620001e5565b50620000c39150600090508462000131565b620000ef7fa49807205ce4d355092ef5a8a18f56e8913cf4a201fbe287825b095693c217758462000131565b600880546001600160a01b0319166001600160a01b038416179055600e84905580516200012490600b906020840190620001e5565b5050505050505062000471565b6200013d828262000141565b5050565b60008281526007602090815260408083206001600160a01b038516845290915290205460ff166200013d5760008281526007602090815260408083206001600160a01b03851684529091529020805460ff19166001179055620001a13390565b6001600160a01b0316816001600160a01b0316837f2f8788117e7eff1d82e926ec794901d17c78024a50270940304540a733656f0d60405160405180910390a45050565b828054620001f39062000434565b90600052602060002090601f01602090048101928262000217576000855562000262565b82601f106200023257805160ff191683800117855562000262565b8280016001018555821562000262579182015b828111156200026257825182559160200191906001019062000245565b506200027092915062000274565b5090565b5b8082111562000270576000815560010162000275565b634e487b7160e01b600052604160045260246000fd5b600082601f830112620002b357600080fd5b81516001600160401b0380821115620002d057620002d06200028b565b604051601f8301601f19908116603f01168101908282118183101715620002fb57620002fb6200028b565b816040528381526020925086838588010111156200031857600080fd5b600091505b838210156200033c57858201830151818301840152908201906200031d565b838211156200034e5760008385830101525b9695505050505050565b80516001600160a01b03811681146200037057600080fd5b919050565b60008060008060008060c087890312156200038f57600080fd5b86516001600160401b0380821115620003a757600080fd5b620003b58a838b01620002a1565b97506020890151915080821115620003cc57600080fd5b620003da8a838b01620002a1565b965060408901519550620003f160608a0162000358565b94506200040160808a0162000358565b935060a08901519150808211156200041857600080fd5b506200042789828a01620002a1565b9150509295509295509295565b600181811c908216806200044957607f821691505b602082108114156200046b57634e487b7160e01b600052602260045260246000fd5b50919050565b61219180620004816000396000f3fe608060405234801561001057600080fd5b506004361061014d5760003560e01c80636352211e116100c3578063a217fddf1161007c578063a217fddf146102ed578063a22cb465146102f5578063b88d4fde14610308578063c87b56dd1461031b578063d547741f1461032e578063e985e9c51461034157600080fd5b80636352211e1461027257806370a082311461028557806375b238fc1461029857806391d14854146102bf57806395d89b41146102d2578063966dae0e146102da57600080fd5b8063248a9ca311610115578063248a9ca3146101e25780632f2ff15d1461021357806336568abe1461022657806342842e0e1461023957806342966c681461024c578063524a7db01461025f57600080fd5b806301ffc9a71461015257806306fdde031461017a578063081812fc1461018f578063095ea7b3146101ba57806323b872dd146101cf575b600080fd5b6101656101603660046119b8565b61037d565b60405190151581526020015b60405180910390f35b6101826103a8565b6040516101719190611a2d565b6101a261019d366004611a40565b61043a565b6040516001600160a01b039091168152602001610171565b6101cd6101c8366004611a75565b6104c7565b005b6101cd6101dd366004611a9f565b6105dd565b6102056101f0366004611a40565b60009081526007602052604090206001015490565b604051908152602001610171565b6101cd610221366004611adb565b61060e565b6101cd610234366004611adb565b610634565b6101cd610247366004611a9f565b6106b2565b6101cd61025a366004611a40565b6106cd565b6101cd61026d366004611ba1565b610701565b6101a2610280366004611a40565b61089e565b610205610293366004611c45565b610915565b6102057fa49807205ce4d355092ef5a8a18f56e8913cf4a201fbe287825b095693c2177581565b6101656102cd366004611adb565b61099c565b6101826109c7565b6008546101a2906001600160a01b031681565b610205600081565b6101cd610303366004611c60565b6109d6565b6101cd610316366004611c97565b610a9b565b610182610329366004611a40565b610ad3565b6101cd61033c366004611adb565b610c4a565b61016561034f366004611d13565b6001600160a01b03918216600090815260056020908152604080832093909416825291909152205460ff1690565b60006001600160e01b031982166380ac58cd60e01b14806103a257506103a282610c70565b92915050565b6060600080546103b790611d3d565b80601f01602080910402602001604051908101604052809291908181526020018280546103e390611d3d565b80156104305780601f1061040557610100808354040283529160200191610430565b820191906000526020600020905b81548152906001019060200180831161041357829003601f168201915b5050505050905090565b600061044582610c95565b6104ab5760405162461bcd60e51b815260206004820152602c60248201527f4552433732313a20617070726f76656420717565727920666f72206e6f6e657860448201526b34b9ba32b73a103a37b5b2b760a11b60648201526084015b60405180910390fd5b506000908152600460205260409020546001600160a01b031690565b60006104d28261089e565b9050806001600160a01b0316836001600160a01b031614156105405760405162461bcd60e51b815260206004820152602160248201527f4552433732313a20617070726f76616c20746f2063757272656e74206f776e656044820152603960f91b60648201526084016104a2565b336001600160a01b038216148061055c575061055c813361034f565b6105ce5760405162461bcd60e51b815260206004820152603860248201527f4552433732313a20617070726f76652063616c6c6572206973206e6f74206f7760448201527f6e6572206e6f7220617070726f76656420666f7220616c6c000000000000000060648201526084016104a2565b6105d88383610cb2565b505050565b6105e73382610d20565b6106035760405162461bcd60e51b81526004016104a290611d78565b6105d8838383610e06565b60008281526007602052604090206001015461062a8133610fa6565b6105d8838361100a565b6001600160a01b03811633146106a45760405162461bcd60e51b815260206004820152602f60248201527f416363657373436f6e74726f6c3a2063616e206f6e6c792072656e6f756e636560448201526e103937b632b9903337b91039b2b63360891b60648201526084016104a2565b6106ae8282611090565b5050565b6105d883838360405180602001604052806000815250610a9b565b7fa49807205ce4d355092ef5a8a18f56e8913cf4a201fbe287825b095693c217756106f88133610fa6565b6106ae826110f7565b7fa49807205ce4d355092ef5a8a18f56e8913cf4a201fbe287825b095693c2177561072c8133610fa6565b610736888861113a565b6107408787611154565b6008546001600160a01b03166009600b6107598a6111df565b60405160200161076b93929190611e38565b604051602081830303815290604052600c908051906020019061078f9291906118d3565b50604051636dedc6bb60e11b81526001600160a01b0382169063dbdb8d76906107c190600c9030908d90600401611e67565b600060405180830381600087803b1580156107db57600080fd5b505af11580156107ef573d6000803e3d6000fd5b50505050821561089357600d54600f546040516323b872dd60e01b81523360048201526001600160a01b0392831660248201526044810191909152908716906323b872dd906064016020604051808303816000875af1158015610856573d6000803e3d6000fd5b505050506040513d601f19601f8201168201806040525081019061087a9190611f04565b50600d546108939033906001600160a01b03168a6105dd565b505050505050505050565b6000818152600260205260408120546001600160a01b0316806103a25760405162461bcd60e51b815260206004820152602960248201527f4552433732313a206f776e657220717565727920666f72206e6f6e657869737460448201526832b73a103a37b5b2b760b91b60648201526084016104a2565b60006001600160a01b0382166109805760405162461bcd60e51b815260206004820152602a60248201527f4552433732313a2062616c616e636520717565727920666f7220746865207a65604482015269726f206164647265737360b01b60648201526084016104a2565b506001600160a01b031660009081526003602052604090205490565b60009182526007602090815260408084206001600160a01b0393909316845291905290205460ff1690565b6060600180546103b790611d3d565b6001600160a01b038216331415610a2f5760405162461bcd60e51b815260206004820152601960248201527f4552433732313a20617070726f766520746f2063616c6c65720000000000000060448201526064016104a2565b3360008181526005602090815260408083206001600160a01b03871680855290835292819020805460ff191686151590811790915590519081529192917f17307eab39ab6107e8899845ad3d59bd9653f200f220920489ca2b5937696c31910160405180910390a35050565b610aa53383610d20565b610ac15760405162461bcd60e51b81526004016104a290611d78565b610acd848484846112dd565b50505050565b6060610ade82610c95565b610b445760405162461bcd60e51b815260206004820152603160248201527f45524337323155524953746f726167653a2055524920717565727920666f72206044820152703737b732bc34b9ba32b73a103a37b5b2b760791b60648201526084016104a2565b60008281526006602052604081208054610b5d90611d3d565b80601f0160208091040260200160405190810160405280929190818152602001828054610b8990611d3d565b8015610bd65780601f10610bab57610100808354040283529160200191610bd6565b820191906000526020600020905b815481529060010190602001808311610bb957829003601f168201915b505050505090506000610bf460408051602081019091526000815290565b9050805160001415610c07575092915050565b815115610c39578082604051602001610c21929190611f21565b60405160208183030381529060405292505050919050565b610c4284611310565b949350505050565b600082815260076020526040902060010154610c668133610fa6565b6105d88383611090565b60006001600160e01b03198216637965db0b60e01b14806103a257506103a2826113e8565b6000908152600260205260409020546001600160a01b0316151590565b600081815260046020526040902080546001600160a01b0319166001600160a01b0384169081179091558190610ce78261089e565b6001600160a01b03167f8c5be1e5ebec7d5bd14f71427d1e84f3dd0314c0f7b2291e5b200ac8c7c3b92560405160405180910390a45050565b6000610d2b82610c95565b610d8c5760405162461bcd60e51b815260206004820152602c60248201527f4552433732313a206f70657261746f7220717565727920666f72206e6f6e657860448201526b34b9ba32b73a103a37b5b2b760a11b60648201526084016104a2565b6000610d978361089e565b9050806001600160a01b0316846001600160a01b03161480610dd25750836001600160a01b0316610dc78461043a565b6001600160a01b0316145b80610c4257506001600160a01b0380821660009081526005602090815260408083209388168352929052205460ff16610c42565b826001600160a01b0316610e198261089e565b6001600160a01b031614610e815760405162461bcd60e51b815260206004820152602960248201527f4552433732313a207472616e73666572206f6620746f6b656e2074686174206960448201526839903737ba1037bbb760b91b60648201526084016104a2565b6001600160a01b038216610ee35760405162461bcd60e51b8152602060048201526024808201527f4552433732313a207472616e7366657220746f20746865207a65726f206164646044820152637265737360e01b60648201526084016104a2565b610eee600082610cb2565b6001600160a01b0383166000908152600360205260408120805460019290610f17908490611f66565b90915550506001600160a01b0382166000908152600360205260408120805460019290610f45908490611f7d565b909155505060008181526002602052604080822080546001600160a01b0319166001600160a01b0386811691821790925591518493918716917fddf252ad1be2c89b69c2b068fc378daa952ba7f163c4a11628f55a4df523b3ef91a4505050565b610fb0828261099c565b6106ae57610fc8816001600160a01b03166014611438565b610fd3836020611438565b604051602001610fe4929190611f95565b60408051601f198184030181529082905262461bcd60e51b82526104a291600401611a2d565b611014828261099c565b6106ae5760008281526007602090815260408083206001600160a01b03851684529091529020805460ff1916600117905561104c3390565b6001600160a01b0316816001600160a01b0316837f2f8788117e7eff1d82e926ec794901d17c78024a50270940304540a733656f0d60405160405180910390a45050565b61109a828261099c565b156106ae5760008281526007602090815260408083206001600160a01b0385168085529252808320805460ff1916905551339285917ff6391f5c32d9c69d2a47ea670b442974b53935d1edc7fd64eb21e047a839171b9190a45050565b611100816115d4565b6000818152600660205260409020805461111990611d3d565b15905061113757600081815260066020526040812061113791611957565b50565b6106ae82826040518060200160405280600081525061166f565b61115d82610c95565b6111c05760405162461bcd60e51b815260206004820152602e60248201527f45524337323155524953746f726167653a2055524920736574206f66206e6f6e60448201526d32bc34b9ba32b73a103a37b5b2b760911b60648201526084016104a2565b600082815260066020908152604090912082516105d8928401906118d3565b6060816112035750506040805180820190915260018152600360fc1b602082015290565b8160005b811561122d57806112178161200a565b91506112269050600a8361203b565b9150611207565b60008167ffffffffffffffff81111561124857611248611b07565b6040519080825280601f01601f191660200182016040528015611272576020820181803683370190505b5090505b8415610c4257611287600183611f66565b9150611294600a8661204f565b61129f906030611f7d565b60f81b8183815181106112b4576112b4612063565b60200101906001600160f81b031916908160001a9053506112d6600a8661203b565b9450611276565b6112e8848484610e06565b6112f4848484846116a2565b610acd5760405162461bcd60e51b81526004016104a290612079565b606061131b82610c95565b61137f5760405162461bcd60e51b815260206004820152602f60248201527f4552433732314d657461646174613a2055524920717565727920666f72206e6f60448201526e3732bc34b9ba32b73a103a37b5b2b760891b60648201526084016104a2565b600061139660408051602081019091526000815290565b905060008151116113b657604051806020016040528060008152506113e1565b806113c0846111df565b6040516020016113d1929190611f21565b6040516020818303038152906040525b9392505050565b60006001600160e01b031982166380ac58cd60e01b148061141957506001600160e01b03198216635b5e139f60e01b145b806103a257506301ffc9a760e01b6001600160e01b03198316146103a2565b606060006114478360026120cb565b611452906002611f7d565b67ffffffffffffffff81111561146a5761146a611b07565b6040519080825280601f01601f191660200182016040528015611494576020820181803683370190505b509050600360fc1b816000815181106114af576114af612063565b60200101906001600160f81b031916908160001a905350600f60fb1b816001815181106114de576114de612063565b60200101906001600160f81b031916908160001a90535060006115028460026120cb565b61150d906001611f7d565b90505b6001811115611585576f181899199a1a9b1b9c1cb0b131b232b360811b85600f166010811061154157611541612063565b1a60f81b82828151811061155757611557612063565b60200101906001600160f81b031916908160001a90535060049490941c9361157e816120ea565b9050611510565b5083156113e15760405162461bcd60e51b815260206004820181905260248201527f537472696e67733a20686578206c656e67746820696e73756666696369656e7460448201526064016104a2565b60006115df8261089e565b90506115ec600083610cb2565b6001600160a01b0381166000908152600360205260408120805460019290611615908490611f66565b909155505060008281526002602052604080822080546001600160a01b0319169055518391906001600160a01b038416907fddf252ad1be2c89b69c2b068fc378daa952ba7f163c4a11628f55a4df523b3ef908390a45050565b61167983836117a0565b61168660008484846116a2565b6105d85760405162461bcd60e51b81526004016104a290612079565b60006001600160a01b0384163b1561179557604051630a85bd0160e11b81526001600160a01b0385169063150b7a02906116e6903390899088908890600401612101565b6020604051808303816000875af1925050508015611721575060408051601f3d908101601f1916820190925261171e9181019061213e565b60015b61177b573d80801561174f576040519150601f19603f3d011682016040523d82523d6000602084013e611754565b606091505b5080516117735760405162461bcd60e51b81526004016104a290612079565b805181602001fd5b6001600160e01b031916630a85bd0160e11b149050610c42565b506001949350505050565b6001600160a01b0382166117f65760405162461bcd60e51b815260206004820181905260248201527f4552433732313a206d696e7420746f20746865207a65726f206164647265737360448201526064016104a2565b6117ff81610c95565b1561184c5760405162461bcd60e51b815260206004820152601c60248201527f4552433732313a20746f6b656e20616c7265616479206d696e7465640000000060448201526064016104a2565b6001600160a01b0382166000908152600360205260408120805460019290611875908490611f7d565b909155505060008181526002602052604080822080546001600160a01b0319166001600160a01b03861690811790915590518392907fddf252ad1be2c89b69c2b068fc378daa952ba7f163c4a11628f55a4df523b3ef908290a45050565b8280546118df90611d3d565b90600052602060002090601f0160209004810192826119015760008555611947565b82601f1061191a57805160ff1916838001178555611947565b82800160010185558215611947579182015b8281111561194757825182559160200191906001019061192c565b5061195392915061198d565b5090565b50805461196390611d3d565b6000825580601f10611973575050565b601f01602090049060005260206000209081019061113791905b5b80821115611953576000815560010161198e565b6001600160e01b03198116811461113757600080fd5b6000602082840312156119ca57600080fd5b81356113e1816119a2565b60005b838110156119f05781810151838201526020016119d8565b83811115610acd5750506000910152565b60008151808452611a198160208601602086016119d5565b601f01601f19169290920160200192915050565b6020815260006113e16020830184611a01565b600060208284031215611a5257600080fd5b5035919050565b80356001600160a01b0381168114611a7057600080fd5b919050565b60008060408385031215611a8857600080fd5b611a9183611a59565b946020939093013593505050565b600080600060608486031215611ab457600080fd5b611abd84611a59565b9250611acb60208501611a59565b9150604084013590509250925092565b60008060408385031215611aee57600080fd5b82359150611afe60208401611a59565b90509250929050565b634e487b7160e01b600052604160045260246000fd5b600067ffffffffffffffff80841115611b3857611b38611b07565b604051601f8501601f19908116603f01168101908282118183101715611b6057611b60611b07565b81604052809350858152868686011115611b7957600080fd5b858560208301376000602087830101525050509392505050565b801515811461113757600080fd5b600080600080600080600060e0888a031215611bbc57600080fd5b611bc588611a59565b965060208801359550604088013567ffffffffffffffff811115611be857600080fd5b8801601f81018a13611bf957600080fd5b611c088a823560208401611b1d565b955050611c1760608901611a59565b93506080880135925060a0880135915060c0880135611c3581611b93565b8091505092959891949750929550565b600060208284031215611c5757600080fd5b6113e182611a59565b60008060408385031215611c7357600080fd5b611c7c83611a59565b91506020830135611c8c81611b93565b809150509250929050565b60008060008060808587031215611cad57600080fd5b611cb685611a59565b9350611cc460208601611a59565b925060408501359150606085013567ffffffffffffffff811115611ce757600080fd5b8501601f81018713611cf857600080fd5b611d0787823560208401611b1d565b91505092959194509250565b60008060408385031215611d2657600080fd5b611d2f83611a59565b9150611afe60208401611a59565b600181811c90821680611d5157607f821691505b60208210811415611d7257634e487b7160e01b600052602260045260246000fd5b50919050565b60208082526031908201527f4552433732313a207472616e736665722063616c6c6572206973206e6f74206f6040820152701ddb995c881b9bdc88185c1c1c9bdd9959607a1b606082015260800190565b60008154611dd681611d3d565b60018281168015611dee5760018114611dff57611e2e565b60ff19841687528287019450611e2e565b8560005260208060002060005b85811015611e255781548a820152908401908201611e0c565b50505082870194505b5050505092915050565b6000611e4d611e478387611dc9565b85611dc9565b8351611e5d8183602088016119d5565b0195945050505050565b606081526000808554611e7981611d3d565b8060608601526080600180841660008114611e9b5760018114611eaf57611ee0565b60ff1985168884015260a088019550611ee0565b8a60005260208060002060005b86811015611ed75781548b8201870152908401908201611ebc565b8a018501975050505b505050506001600160a01b0386166020850152509050826040830152949350505050565b600060208284031215611f1657600080fd5b81516113e181611b93565b60008351611f338184602088016119d5565b835190830190611f478183602088016119d5565b01949350505050565b634e487b7160e01b600052601160045260246000fd5b600082821015611f7857611f78611f50565b500390565b60008219821115611f9057611f90611f50565b500190565b7f416363657373436f6e74726f6c3a206163636f756e7420000000000000000000815260008351611fcd8160178501602088016119d5565b7001034b99036b4b9b9b4b733903937b6329607d1b6017918401918201528351611ffe8160288401602088016119d5565b01602801949350505050565b600060001982141561201e5761201e611f50565b5060010190565b634e487b7160e01b600052601260045260246000fd5b60008261204a5761204a612025565b500490565b60008261205e5761205e612025565b500690565b634e487b7160e01b600052603260045260246000fd5b60208082526032908201527f4552433732313a207472616e7366657220746f206e6f6e20455243373231526560408201527131b2b4bb32b91034b6b83632b6b2b73a32b960711b606082015260800190565b60008160001904831182151516156120e5576120e5611f50565b500290565b6000816120f9576120f9611f50565b506000190190565b6001600160a01b038581168252841660208201526040810183905260806060820181905260009061213490830184611a01565b9695505050505050565b60006020828403121561215057600080fd5b81516113e1816119a256fea264697066735822122017eb1342b445daf99403da1918cd7d192bbe8d4332a3e45181dfcb9c372cc7d064736f6c634300080c0033",
  "linkReferences": {},
  "deployedLinkReferences": {}
}