{
  "contractName": "SourceMinter",
  "abi": [
    {
      "inputs": [
        {
          "internalType": "address",
          "name": "router",
          "type": "address"
        },
        {
          "internalType": "address",
          "name": "link",
          "type": "address"
        }
      ],
      "stateMutability": "nonpayable",
      "type": "constructor"
    },
    {
      "anonymous": false,
      "inputs": [
        {
          "indexed": false,
          "internalType": "bytes32",
          "name": "messageId",
          "type": "bytes32"
        }
      ],
      "name": "MessageSent",
      "type": "event"
    },
    {
      "stateMutability": "payable",
      "type": "receive",
      "payable": true
    },
    {
      "inputs": [
        {
          "internalType": "uint64",
          "name": "destinationChainSelector",
          "type": "uint64"
        },
        {
          "internalType": "address",
          "name": "receiver",
          "type": "address"
        },
        {
          "internalType": "uint256",
          "name": "tokenId",
          "type": "uint256"
        },
        {
          "internalType": "string",
          "name": "TOKEN_URI",
          "type": "string"
        },
        {
          "internalType": "address",
          "name": "token",
          "type": "address"
        },
        {
          "internalType": "uint256",
          "name": "price",
          "type": "uint256"
        },
        {
          "internalType": "uint256",
          "name": "profit",
          "type": "uint256"
        },
        {
          "internalType": "bool",
          "name": "check",
          "type": "bool"
        },
        {
          "internalType": "uint256",
          "name": "gas",
          "type": "uint256"
        }
      ],
      "name": "transfer",
      "outputs": [],
      "stateMutability": "nonpayable",
      "type": "function"
    }
  ],
  "bytecode": "0x60c0604052600180546001600160a01b031916736f3b51bd5b67f3e5bca2fb32796215a796b7965117905534801561003657600080fd5b506040516106a03803806106a083398101604081905261005591610088565b6001600160a01b039182166080521660a0526100bb565b80516001600160a01b038116811461008357600080fd5b919050565b6000806040838503121561009b57600080fd5b6100a48361006c565b91506100b26020840161006c565b90509250929050565b60805160a0516105c06100e06000396000610121015260006101d201526105c06000f3fe6080604052600436106100225760003560e01c80637d90e69d1461002e57600080fd5b3661002957005b600080fd5b34801561003a57600080fd5b5061004e6100493660046102d6565b610050565b005b6040805160a081019091526001600160a01b03891660c08201526000908060e081016040516020818303038152906040528152602001338a8a8a8a8a8a6040516024016100a39796959493929190610448565b60408051601f19818403018152919052602080820180516001600160e01b0316630524a7db60e41b17905290825201600060405190808252806020026020018201604052801561011957816020015b60408051808201909152600080825260208201528152602001906001900390816100f25790505b5081526020017f00000000000000000000000000000000000000000000000000000000000000006001600160a01b031681526020016101b36040518060400160405280868152602001600015158152506040805182516024820152602092830151151560448083019190915282518083039091018152606490910190915290810180516001600160e01b03166397a657c960e01b17905290565b90526040516396f4e9f960e01b81529091506000906001600160a01b037f000000000000000000000000000000000000000000000000000000000000000016906396f4e9f990610209908e908690600401610497565b6020604051808303816000875af1158015610228573d6000803e3d6000fd5b505050506040513d601f19601f8201168201806040525081019061024c9190610571565b90507f54791b38f3859327992a1ca0590ad3c0f08feba98d1a4f56ab0dca74d203392a8160405161027f91815260200190565b60405180910390a15050505050505050505050565b80356001600160a01b03811681146102ab57600080fd5b919050565b634e487b7160e01b600052604160045260246000fd5b803580151581146102ab57600080fd5b60008060008060008060008060006101208a8c0312156102f557600080fd5b893567ffffffffffffffff808216821461030e57600080fd5b819a5061031d60208d01610294565b995060408c0135985060608c013591508082111561033a57600080fd5b818c0191508c601f83011261034e57600080fd5b813581811115610360576103606102b0565b604051601f8201601f19908116603f01168101908382118183101715610388576103886102b0565b816040528281528f60208487010111156103a157600080fd5b82602086016020830137600060208483010152809a5050505050506103c860808b01610294565b945060a08a0135935060c08a013592506103e460e08b016102c6565b91506101008a013590509295985092959850929598565b6000815180845260005b8181101561042157602081850181015186830182015201610405565b81811115610433576000602083870101525b50601f01601f19169290920160200192915050565b600060018060a01b03808a16835288602084015260e0604084015261047060e08401896103fb565b9616606083015250608081019390935260a0830191909152151560c0909101529392505050565b6000604067ffffffffffffffff8516835260208181850152845160a0838601526104c460e08601826103fb565b905081860151603f19808784030160608801526104e183836103fb565b88860151888203830160808a01528051808352908601945060009350908501905b8084101561053457845180516001600160a01b0316835286015186830152938501936001939093019290860190610502565b5060608901516001600160a01b031660a08901526080890151888203830160c08a0152955061056381876103fb565b9a9950505050505050505050565b60006020828403121561058357600080fd5b505191905056fea26469706673582212203666c6d8054a254691ae9c72d95be08b4f671156bdfe001989b2eeb09504759764736f6c634300080c0033",
  "immutableReferences": {
    "3599": [
      {
        "length": 32,
        "start": 466
      }
    ],
    "3601": [
      {
        "length": 32,
        "start": 289
      }
    ]
  },
  "source": "// SPDX-License-Identifier: MIT\npragma solidity 0.8.12;\n\nimport {IRouterClient} from \"@chainlink/contracts-ccip/src/v0.8/ccip/interfaces/IRouterClient.sol\";\nimport {Client} from \"@chainlink/contracts-ccip/src/v0.8/ccip/libraries/Client.sol\";\nimport {GalNFT} from \"./GalNFT.sol\";\nimport \"@openzeppelin/contracts/token/ERC20/IERC20.sol\";\n\n\ncontract SourceMinter {\n    GalNFT nft;\n\n    address immutable i_router;\n    address immutable i_link;\n    address superadmin = 0x6f3B51bd5B67F3e5bca2fb32796215A796B79651;\n\n    event MessageSent(bytes32 messageId);\n\n    constructor(address router, address link) {\n        i_router = router;\n        i_link = link;\n    }\n\n    receive() external payable {}\n\n    function transfer(\n        uint64 destinationChainSelector,\n        address receiver,\n        uint256 tokenId,\n        string memory TOKEN_URI,\n        address token,\n        uint256 price,\n        uint256 profit,\n        bool check,\n        uint256 gas\n    ) external {\n        Client.EVM2AnyMessage memory message = Client.EVM2AnyMessage({\n            receiver: abi.encode(receiver),\n            data: abi.encodeWithSignature(\n                \"mint(address,uint256,string,address,uint256,uint256,bool)\",\n                msg.sender,\n                tokenId,\n                TOKEN_URI,\n                token,\n                price,\n                profit,\n                check\n            ),\n            tokenAmounts: new Client.EVMTokenAmount[](0),\n            extraArgs: Client._argsToBytes(\n                Client.EVMExtraArgsV1({gasLimit: gas, strict: false})\n            ),\n            feeToken: i_link\n        });\n\n        bytes32 messageId;\n\n        messageId = IRouterClient(i_router).ccipSend(\n            destinationChainSelector,\n            message\n        );\n\n        emit MessageSent(messageId);\n    }\n\n    }\n",
  "sourcePath": "/home/talha/Projects/HOC/galileo-ccip/contracts/SourceMinter.sol",
  "compiler": {
    "name": "solc",
    "version": "0.8.12+commit.f00d7308.Emscripten.clang"
  },
  "schemaVersion": "3.4.16",
  "updatedAt": "2023-11-10T11:35:33.452Z",
  "networkType": "ethereum",
  "devdoc": {
    "kind": "dev",
    "methods": {},
    "version": 1
  },
  "userdoc": {
    "kind": "user",
    "methods": {},
    "version": 1
  }
}